{
  "contractName": "Rating",
  "abi": [
    {
      "constant": false,
      "inputs": [],
      "name": "getMovies",
      "outputs": [
        {
          "name": "",
          "type": "string"
        }
      ],
      "payable": false,
      "stateMutability": "nonpayable",
      "type": "function"
    },
    {
      "constant": true,
      "inputs": [
        {
          "name": "",
          "type": "uint256"
        }
      ],
      "name": "movies",
      "outputs": [
        {
          "name": "name",
          "type": "string"
        },
        {
          "name": "rating",
          "type": "uint256"
        }
      ],
      "payable": false,
      "stateMutability": "view",
      "type": "function"
    },
    {
      "constant": false,
      "inputs": [
        {
          "name": "movie",
          "type": "string"
        }
      ],
      "name": "addMovie",
      "outputs": [],
      "payable": false,
      "stateMutability": "nonpayable",
      "type": "function"
    },
    {
      "inputs": [],
      "payable": false,
      "stateMutability": "nonpayable",
      "type": "constructor"
    }
  ],
  "bytecode": "0x6060604052341561000f57600080fd5b600080548060010182816100239190610150565b9160005260206000209060020201600060408051908101604052806040805190810160405280600781526020017f546974616e696300000000000000000000000000000000000000000000000000815250815260200160048152509091909150600082015181600001908051906020019061009f929190610182565b5060208201518160010155505050600080548060010182816100c19190610150565b9160005260206000209060020201600060408051908101604052806040805190810160405280600281526020017f5353000000000000000000000000000000000000000000000000000000000000815250815260200160058152509091909150600082015181600001908051906020019061013d929190610182565b50602082015181600101555050506102a6565b81548183558181151161017d5760020281600202836000526020600020918201910161017c9190610202565b5b505050565b828054600181600116156101000203166002900490600052602060002090601f016020900481019282601f106101c357805160ff19168380011785556101f1565b828001600101855582156101f1579182015b828111156101f05782518255916020019190600101906101d5565b5b5090506101fe9190610239565b5090565b61023691905b808211156102325760008082016000610221919061025e565b600182016000905550600201610208565b5090565b90565b61025b91905b8082111561025757600081600090555060010161023f565b5090565b90565b50805460018160011615610100020316600290046000825580601f1061028457506102a3565b601f0160209004906000526020600020908101906102a29190610239565b5b50565b61051a806102b56000396000f300606060405260043610610057576000357c0100000000000000000000000000000000000000000000000000000000900463ffffffff1680632c53b4061461005c578063404ebf6c146100ea57806372511e47146101aa575b600080fd5b341561006757600080fd5b61006f610207565b6040518080602001828103825283818151815260200191508051906020019080838360005b838110156100af578082015181840152602081019050610094565b50505050905090810190601f1680156100dc5780820380516001836020036101000a031916815260200191505b509250505060405180910390f35b34156100f557600080fd5b61010b60048080359060200190919050506102e6565b604051808060200183815260200182810382528481815460018160011615610100020316600290048152602001915080546001816001161561010002031660029004801561019a5780601f1061016f5761010080835404028352916020019161019a565b820191906000526020600020905b81548152906001019060200180831161017d57829003601f168201915b5050935050505060405180910390f35b34156101b557600080fd5b610205600480803590602001908201803590602001908080601f01602080910402602001604051908101604052809392919081815260200183838082843782019150505050505091905050610318565b005b61020f610384565b60008090506000805490508110156102e15760008181548110151561023057fe5b90600052602060002090600202016000018054600181600116156101000203166002900480601f0160208091040260200160405190810160405280929190818152602001828054600181600116156101000203166002900480156102d55780601f106102aa576101008083540402835291602001916102d5565b820191906000526020600020905b8154815290600101906020018083116102b857829003601f168201915b505050505091506102e2565b5b5090565b6000818154811015156102f557fe5b906000526020600020906002020160009150905080600001908060010154905082565b6000805480600101828161032c9190610398565b9160005260206000209060020201600060408051908101604052808581526020016004815250909190915060008201518160000190805190602001906103739291906103ca565b506020820151816001015550505050565b602060405190810160405280600081525090565b8154818355818115116103c5576002028160020283600052602060002091820191016103c4919061044a565b5b505050565b828054600181600116156101000203166002900490600052602060002090601f016020900481019282601f1061040b57805160ff1916838001178555610439565b82800160010185558215610439579182015b8281111561043857825182559160200191906001019061041d565b5b5090506104469190610481565b5090565b61047e91905b8082111561047a576000808201600061046991906104a6565b600182016000905550600201610450565b5090565b90565b6104a391905b8082111561049f576000816000905550600101610487565b5090565b90565b50805460018160011615610100020316600290046000825580601f106104cc57506104eb565b601f0160209004906000526020600020908101906104ea9190610481565b5b505600a165627a7a72305820ac0f228d497f84a009d3a09d3b11e09444be9c8a640b1b7e7c913e617bc17fa70029",
  "source": " pragma solidity ^0.4.17;\n\ncontract Rating {\n    struct Movie {\n        string name;\n        uint rating;\n    }\n\n    Movie[] public movies;\n  function Rating(){\n    movies.push(Movie(\"Titanic\",4));\n    movies.push(Movie(\"SS\",5));\n  }\n\n\n    function addMovie(string movie) public{\n      movies.push(Movie(movie,4)); \n  }\n  function getMovies() public returns(string){\n    for(uint i=0;i<movies.length;i++){\n     return movies[i].name;\n    }\n  }\n\n}",
  "sourcePath": "/Users/akshartakle/Desktop/projects/nodeethapp/contracts/Rating.sol",
  "compiler": {
    "name": "solc",
    "version": "0.4.18+commit.9cf6e910.Emscripten.clang"
  },
  "schemaVersion": "1.0.1",
  "updatedAt": "2018-02-10T00:10:35.922Z"
}