{
  "contractName": "SCM",
  "abi": [
    {
      "constant": true,
      "inputs": [
        {
          "name": "",
          "type": "uint256"
        }
      ],
      "name": "carToOwner",
      "outputs": [
        {
          "name": "",
          "type": "address"
        }
      ],
      "payable": false,
      "stateMutability": "view",
      "type": "function"
    },
    {
      "constant": true,
      "inputs": [
        {
          "name": "",
          "type": "address"
        }
      ],
      "name": "userCarCount",
      "outputs": [
        {
          "name": "",
          "type": "uint256"
        }
      ],
      "payable": false,
      "stateMutability": "view",
      "type": "function"
    },
    {
      "constant": false,
      "inputs": [
        {
          "name": "_dist",
          "type": "address"
        },
        {
          "name": "_owner",
          "type": "address"
        },
        {
          "name": "_carId",
          "type": "uint256"
        },
        {
          "name": "_user",
          "type": "string"
        }
      ],
      "name": "sendFromManToDist",
      "outputs": [
        {
          "name": "",
          "type": "bool"
        }
      ],
      "payable": false,
      "stateMutability": "nonpayable",
      "type": "function"
    },
    {
      "constant": true,
      "inputs": [
        {
          "name": "_id",
          "type": "uint256"
        }
      ],
      "name": "getCar",
      "outputs": [
        {
          "name": "name",
          "type": "string"
        },
        {
          "name": "number",
          "type": "string"
        }
      ],
      "payable": false,
      "stateMutability": "view",
      "type": "function"
    },
    {
      "constant": true,
      "inputs": [
        {
          "name": "",
          "type": "uint256"
        }
      ],
      "name": "idToCar",
      "outputs": [
        {
          "name": "name",
          "type": "string"
        },
        {
          "name": "carNumber",
          "type": "string"
        },
        {
          "name": "currentState",
          "type": "string"
        }
      ],
      "payable": false,
      "stateMutability": "view",
      "type": "function"
    },
    {
      "constant": false,
      "inputs": [
        {
          "name": "_name",
          "type": "string"
        },
        {
          "name": "_carNumberinBytes",
          "type": "bytes32"
        },
        {
          "name": "_user",
          "type": "string"
        },
        {
          "name": "_carNumber",
          "type": "string"
        }
      ],
      "name": "addCar",
      "outputs": [
        {
          "name": "name",
          "type": "string"
        },
        {
          "name": "carNumber",
          "type": "string"
        },
        {
          "name": "senderAdd",
          "type": "address"
        }
      ],
      "payable": false,
      "stateMutability": "nonpayable",
      "type": "function"
    },
    {
      "constant": true,
      "inputs": [
        {
          "name": "",
          "type": "bytes32"
        }
      ],
      "name": "numberToCar",
      "outputs": [
        {
          "name": "name",
          "type": "string"
        },
        {
          "name": "carNumber",
          "type": "string"
        },
        {
          "name": "currentState",
          "type": "string"
        }
      ],
      "payable": false,
      "stateMutability": "view",
      "type": "function"
    },
    {
      "constant": true,
      "inputs": [
        {
          "name": "",
          "type": "uint256"
        }
      ],
      "name": "cars",
      "outputs": [
        {
          "name": "name",
          "type": "string"
        },
        {
          "name": "carNumber",
          "type": "string"
        },
        {
          "name": "currentState",
          "type": "string"
        }
      ],
      "payable": false,
      "stateMutability": "view",
      "type": "function"
    },
    {
      "constant": true,
      "inputs": [
        {
          "name": "_owner",
          "type": "address"
        }
      ],
      "name": "getCarsByUser",
      "outputs": [
        {
          "name": "",
          "type": "uint256[]"
        }
      ],
      "payable": false,
      "stateMutability": "view",
      "type": "function"
    },
    {
      "anonymous": false,
      "inputs": [
        {
          "indexed": false,
          "name": "_id",
          "type": "uint256"
        },
        {
          "indexed": false,
          "name": "_name",
          "type": "string"
        },
        {
          "indexed": false,
          "name": "_carNumber",
          "type": "string"
        }
      ],
      "name": "newCar",
      "type": "event"
    }
  ],
  "bytecode": "0x6060604052341561000f57600080fd5b6119738061001e6000396000f300606060405260043610610099576000357c0100000000000000000000000000000000000000000000000000000000900463ffffffff16806333ca504b1461009e578063342665ff146101015780633b5ff5691461014e5780635e8be1901461020a578063cb06633e14610312578063d3cb49ba146104dd578063d5b0cf21146106e5578063f7746e36146108b4578063fb71785514610a7f575b600080fd5b34156100a957600080fd5b6100bf6004808035906020019091905050610b0d565b604051808273ffffffffffffffffffffffffffffffffffffffff1673ffffffffffffffffffffffffffffffffffffffff16815260200191505060405180910390f35b341561010c57600080fd5b610138600480803573ffffffffffffffffffffffffffffffffffffffff16906020019091905050610b40565b6040518082815260200191505060405180910390f35b341561015957600080fd5b6101f0600480803573ffffffffffffffffffffffffffffffffffffffff1690602001909190803573ffffffffffffffffffffffffffffffffffffffff1690602001909190803590602001909190803590602001908201803590602001908080601f01602080910402602001604051908101604052809392919081815260200183838082843782019150505050505091905050610b58565b604051808215151515815260200191505060405180910390f35b341561021557600080fd5b61022b6004808035906020019091905050610d04565b604051808060200180602001838103835285818151815260200191508051906020019080838360005b8381101561026f578082015181840152602081019050610254565b50505050905090810190601f16801561029c5780820380516001836020036101000a031916815260200191505b50838103825284818151815260200191508051906020019080838360005b838110156102d55780820151818401526020810190506102ba565b50505050905090810190601f1680156103025780820380516001836020036101000a031916815260200191505b5094505050505060405180910390f35b341561031d57600080fd5b6103336004808035906020019091905050610e81565b604051808060200180602001806020018481038452878181546001816001161561010002031660029004815260200191508054600181600116156101000203166002900480156103c45780601f10610399576101008083540402835291602001916103c4565b820191906000526020600020905b8154815290600101906020018083116103a757829003601f168201915b50508481038352868181546001816001161561010002031660029004815260200191508054600181600116156101000203166002900480156104475780601f1061041c57610100808354040283529160200191610447565b820191906000526020600020905b81548152906001019060200180831161042a57829003601f168201915b50508481038252858181546001816001161561010002031660029004815260200191508054600181600116156101000203166002900480156104ca5780601f1061049f576101008083540402835291602001916104ca565b820191906000526020600020905b8154815290600101906020018083116104ad57829003601f168201915b5050965050505050505060405180910390f35b34156104e857600080fd5b6105cb600480803590602001908201803590602001908080601f016020809104026020016040519081016040528093929190818152602001838380828437820191505050505050919080356000191690602001909190803590602001908201803590602001908080601f0160208091040260200160405190810160405280939291908181526020018383808284378201915050505050509190803590602001908201803590602001908080601f01602080910402602001604051908101604052809392919081815260200183838082843782019150505050505091905050610ea8565b6040518080602001806020018473ffffffffffffffffffffffffffffffffffffffff1673ffffffffffffffffffffffffffffffffffffffff168152602001838103835286818151815260200191508051906020019080838360005b83811015610641578082015181840152602081019050610626565b50505050905090810190601f16801561066e5780820380516001836020036101000a031916815260200191505b50838103825285818151815260200191508051906020019080838360005b838110156106a757808201518184015260208101905061068c565b50505050905090810190601f1680156106d45780820380516001836020036101000a031916815260200191505b509550505050505060405180910390f35b34156106f057600080fd5b61070a6004808035600019169060200190919050506115db565b6040518080602001806020018060200184810384528781815460018160011615610100020316600290048152602001915080546001816001161561010002031660029004801561079b5780601f106107705761010080835404028352916020019161079b565b820191906000526020600020905b81548152906001019060200180831161077e57829003601f168201915b505084810383528681815460018160011615610100020316600290048152602001915080546001816001161561010002031660029004801561081e5780601f106107f35761010080835404028352916020019161081e565b820191906000526020600020905b81548152906001019060200180831161080157829003601f168201915b50508481038252858181546001816001161561010002031660029004815260200191508054600181600116156101000203166002900480156108a15780601f10610876576101008083540402835291602001916108a1565b820191906000526020600020905b81548152906001019060200180831161088457829003601f168201915b5050965050505050505060405180910390f35b34156108bf57600080fd5b6108d56004808035906020019091905050611602565b604051808060200180602001806020018481038452878181546001816001161561010002031660029004815260200191508054600181600116156101000203166002900480156109665780601f1061093b57610100808354040283529160200191610966565b820191906000526020600020905b81548152906001019060200180831161094957829003601f168201915b50508481038352868181546001816001161561010002031660029004815260200191508054600181600116156101000203166002900480156109e95780601f106109be576101008083540402835291602001916109e9565b820191906000526020600020905b8154815290600101906020018083116109cc57829003601f168201915b5050848103825285818154600181600116156101000203166002900481526020019150805460018160011615610100020316600290048015610a6c5780601f10610a4157610100808354040283529160200191610a6c565b820191906000526020600020905b815481529060010190602001808311610a4f57829003601f168201915b5050965050505050505060405180910390f35b3415610a8a57600080fd5b610ab6600480803573ffffffffffffffffffffffffffffffffffffffff16906020019091905050611638565b6040518080602001828103825283818151815260200191508051906020019060200280838360005b83811015610af9578082015181840152602081019050610ade565b505050509050019250505060405180910390f35b60026020528060005260406000206000915054906101000a900473ffffffffffffffffffffffffffffffffffffffff1681565b60016020528060005260406000206000915090505481565b600060405180807f6d616e6166616374757265720000000000000000000000000000000000000000815250600c019050604051809103902060001916826040518082805190602001908083835b602083101515610bca5780518252602082019150602081019050602083039250610ba5565b6001836020036101000a038019825116818451168082178552505050505050905001915050604051809103902060001916141515610c0757600080fd5b600160008573ffffffffffffffffffffffffffffffffffffffff1673ffffffffffffffffffffffffffffffffffffffff1681526020019081526020016000206000815480929190600190039190505550600160008673ffffffffffffffffffffffffffffffffffffffff1673ffffffffffffffffffffffffffffffffffffffff16815260200190815260200160002060008154809291906001019190505550846002600085815260200190815260200160002060006101000a81548173ffffffffffffffffffffffffffffffffffffffff021916908373ffffffffffffffffffffffffffffffffffffffff16021790555060019050949350505050565b610d0c611769565b610d14611769565b6003600084815260200190815260200160002060000160036000858152602001908152602001600020600101818054600181600116156101000203166002900480601f016020809104026020016040519081016040528092919081815260200182805460018160011615610100020316600290048015610dd55780601f10610daa57610100808354040283529160200191610dd5565b820191906000526020600020905b815481529060010190602001808311610db857829003601f168201915b50505050509150808054600181600116156101000203166002900480601f016020809104026020016040519081016040528092919081815260200182805460018160011615610100020316600290048015610e715780601f10610e4657610100808354040283529160200191610e71565b820191906000526020600020905b815481529060010190602001808311610e5457829003601f168201915b5050505050905091509150915091565b60036020528060005260406000206000915090508060000190806001019080600201905083565b610eb0611769565b610eb8611769565b600080610ec361177d565b60405180807f6d616e6166616374757265720000000000000000000000000000000000000000815250600c019050604051809103902060001916876040518082805190602001908083835b602083101515610f335780518252602082019150602081019050602083039250610f0e565b6001836020036101000a038019825116818451168082178552505050505050905001915050604051809103902060001916141515610f7057600080fd5b60008054806001018281610f8491906117b1565b916000526020600020906003020160006060604051908101604052808d81526020018a81526020016040805190810160405280600c81526020017f6d616e6166616374757265720000000000000000000000000000000000000000815250815250909190915060008201518160000190805190602001906110069291906117e3565b5060208201518160010190805190602001906110239291906117e3565b5060408201518160020190805190602001906110409291906117e3565b50505091506060604051908101604052808a81526020018781526020016040805190810160405280600c81526020017f6d616e61666163747572657200000000000000000000000000000000000000008152508152506003600084815260200190815260200160002060008201518160000190805190602001906110c59291906117e3565b5060208201518160010190805190602001906110e29291906117e3565b5060408201518160020190805190602001906110ff9291906117e3565b50905050336002600084815260200190815260200160002060006101000a81548173ffffffffffffffffffffffffffffffffffffffff021916908373ffffffffffffffffffffffffffffffffffffffff1602179055506060604051908101604052808a81526020018781526020016040805190810160405280600c81526020017f6d616e6166616374757265720000000000000000000000000000000000000000815250815250600460008a6000191660001916815260200190815260200160002060008201518160000190805190602001906111dd9291906117e3565b5060208201518160010190805190602001906111fa9291906117e3565b5060408201518160020190805190602001906112179291906117e3565b5090505060018060003373ffffffffffffffffffffffffffffffffffffffff1673ffffffffffffffffffffffffffffffffffffffff1681526020019081526020016000205401600160003373ffffffffffffffffffffffffffffffffffffffff1673ffffffffffffffffffffffffffffffffffffffff168152602001908152602001600020819055507f360896376ae9acf8350379fa76264e38f1375bf5382e8410dc0d61d6c2eeaed0828a88604051808481526020018060200180602001838103835285818151815260200191508051906020019080838360005b8381101561130e5780820151818401526020810190506112f3565b50505050905090810190601f16801561133b5780820380516001836020036101000a031916815260200191505b50838103825284818151815260200191508051906020019080838360005b83811015611374578082015181840152602081019050611359565b50505050905090810190601f1680156113a15780820380516001836020036101000a031916815260200191505b509550505050505060405180910390a16003600083815260200190815260200160002060606040519081016040529081600082018054600181600116156101000203166002900480601f0160208091040260200160405190810160405280929190818152602001828054600181600116156101000203166002900480156114695780601f1061143e57610100808354040283529160200191611469565b820191906000526020600020905b81548152906001019060200180831161144c57829003601f168201915b50505050508152602001600182018054600181600116156101000203166002900480601f01602080910402602001604051908101604052809291908181526020018280546001816001161561010002031660029004801561150b5780601f106114e05761010080835404028352916020019161150b565b820191906000526020600020905b8154815290600101906020018083116114ee57829003601f168201915b50505050508152602001600282018054600181600116156101000203166002900480601f0160208091040260200160405190810160405280929190818152602001828054600181600116156101000203166002900480156115ad5780601f10611582576101008083540402835291602001916115ad565b820191906000526020600020905b81548152906001019060200180831161159057829003601f168201915b5050505050815250509050806000015181602001513382925081915094509450945050509450945094915050565b60046020528060005260406000206000915090508060000190806001019080600201905083565b60008181548110151561161157fe5b90600052602060002090600302016000915090508060000190806001019080600201905083565b611640611863565b611648611863565b600080600160008673ffffffffffffffffffffffffffffffffffffffff1673ffffffffffffffffffffffffffffffffffffffff168152602001908152602001600020546040518059106116985750595b9080825280602002602001820160405250925060009150600090505b60008054905081101561175e578473ffffffffffffffffffffffffffffffffffffffff166002600060018401815260200190815260200160002060009054906101000a900473ffffffffffffffffffffffffffffffffffffffff1673ffffffffffffffffffffffffffffffffffffffff1614156117515780838381518110151561173a57fe5b906020019060200201818152505081806001019250505b80806001019150506116b4565b829350505050919050565b602060405190810160405280600081525090565b606060405190810160405280611791611877565b815260200161179e611877565b81526020016117ab611877565b81525090565b8154818355818115116117de576003028160030283600052602060002091820191016117dd919061188b565b5b505050565b828054600181600116156101000203166002900490600052602060002090601f016020900481019282601f1061182457805160ff1916838001178555611852565b82800160010185558215611852579182015b82811115611851578251825591602001919060010190611836565b5b50905061185f91906118da565b5090565b602060405190810160405280600081525090565b602060405190810160405280600081525090565b6118d791905b808211156118d357600080820160006118aa91906118ff565b6001820160006118ba91906118ff565b6002820160006118ca91906118ff565b50600301611891565b5090565b90565b6118fc91905b808211156118f85760008160009055506001016118e0565b5090565b90565b50805460018160011615610100020316600290046000825580601f106119255750611944565b601f01602090049060005260206000209081019061194391906118da565b5b505600a165627a7a72305820f7609447cd2987e13d0be872816f7fedf7dbc031c0f6af92caaf755d6e4e67110029",
  "source": " pragma solidity ^0.4.17;\n\ncontract SCM {\n\n  struct Car{\n    string name;\n    string carNumber;\n    string currentState;\n  }\n  struct User{\n    string name;\n    string class;\n  }\n  Car[] public cars;\n  \n  mapping(address=>uint) public userCarCount;\n  mapping(uint=>address) public carToOwner;\n  mapping(uint =>Car) public idToCar;\n  mapping(bytes32=>Car) public numberToCar;\n\n  event newCar(uint _id, string _name, string _carNumber);\n  \n  function addCar(string _name, bytes32 _carNumberinBytes, string _user, string _carNumber)public \n  returns(string name, string carNumber,address senderAdd){\n    require(keccak256(_user)==keccak256('manafacturer'));\n    uint id=cars.push(Car(_name,_carNumber,'manafacturer'));\n    idToCar[id]=Car(_name,_carNumber,'manafacturer');\n    carToOwner[id]=msg.sender;\n    numberToCar[_carNumberinBytes]=Car(_name,_carNumber,'manafacturer');\n    userCarCount[msg.sender]=userCarCount[msg.sender] +1;\n    newCar(id, _name, _carNumber);\n    Car memory c=idToCar[id];\n    return(c.name,c.carNumber,msg.sender);\n  }\n    function getCarsByUser(address _owner) external view returns(uint[]){\n        // string[] memory cnames = new string[](userCarCount[msg.sender]);\n        // string[] memory cnumbers=new string[](userCarCount[msg.sender]);\n        uint[] memory carId=new uint[](userCarCount[_owner]);\n        uint counter = 0;\n        for (uint i = 0; i < cars.length; i++) {\n          if (carToOwner[i+1] == _owner) {\n            carId[counter]=i;\n            counter++;\n          }\n        }\n        return carId;\n    }\n    function getCar(uint _id) view public returns(string name, string number){\n        return (idToCar[_id].name,idToCar[_id].carNumber);\n    }\n    function sendFromManToDist(address _dist, address _owner, uint _carId, string _user) returns (bool){\n      require(keccak256(_user)==keccak256('manafacturer'));\n      userCarCount[_owner]--;\n      userCarCount[_dist]++;\n      carToOwner[_carId]=_dist;\n      return true;\n    }\n\n}",
  "sourcePath": "/Users/akshartakle/Desktop/projects/nodeethapp/contracts/Rating.sol",
  "compiler": {
    "name": "solc",
    "version": "0.4.18+commit.9cf6e910.Emscripten.clang"
  },
  "schemaVersion": "1.0.1",
  "updatedAt": "2018-02-13T15:29:53.388Z"
}